:100000000C9462000C942D050C9406050C948A0047
:100010000C948A000C948A000C948A000C948A0038
:100020000C948A000C94AC050C948A000C948A0001
:100030000C948A000C948A000C948A000C948A0018
:100040000C94BC040C948A000C947A050C9454050E
:100050000C948A000C948A000C948A000C948A00F8
:100060000C948A000C948A000000000024002700F1
:100070002A0000000000250028002B0000000008D6
:10008000000201000003040700000000000000005F
:10009000010204081020408001020408102001021F
:1000A000040810200000000023002600290004049A
:1000B0000404040404040202020202020303030310
:1000C0000303CF0511241FBECFEFD8E0DEBFCDBFA5
:1000D00011E0A0E0B1E0E0E9FEE102C005900D9280
:1000E000A234B107D9F722E0A2E4B1E001C01D9229
:1000F000A837B207E1F710E0C2E6D0E004C02197CC
:10010000FE010E943B0FC136D107C9F70E941C07B0
:100110000C94460F0C94000090E0FC01E458FF4F53
:100120003491FC01E057FF4F2491FC01E255FF4F51
:10013000E491EE2309F43BC0332339F1333091F0DD
:1001400038F43130A9F0323001F584B58F7D12C01A
:10015000373091F03830A1F03430B9F4809180001C
:100160008F7D03C0809180008F77809380000DC0C9
:1001700084B58F7784BD09C08091B0008F7703C0AC
:100180008091B0008F7D8093B000F0E0EE0FFF1FF4
:10019000EE58FF4FA591B4918FB7F894EC9161118F
:1001A00003C020952E2301C02E2B2C938FBF0895C2
:1001B000CF93DF9390E0FC01E057FF4F2491FC01C7
:1001C000E255FF4F8491882361F190E0880F991FD9
:1001D000FC01E859FF4FC591D491FC01EE58FF4F47
:1001E000A591B491611109C09FB7F89488812095B9
:1001F00082238883EC912E230BC0623061F49FB779
:10020000F8943881822F809583238883EC912E2B5C
:100210002C939FBF06C08FB7F894E8812E2B2883BC
:100220008FBFDF91CF9108951F93CF93DF93182F46
:10023000EB0161E00E94D800209711F460E004C057
:10024000CF3FD10539F461E0812FDF91CF911F912C
:100250000C948C00E12FF0E0E458FF4FE491E33080
:10026000F9F048F4E130B9F0E230A1F584B58062EC
:1002700084BDC8BD34C0E730E9F0E83019F1E4309E
:1002800049F580918000806280938000D0938B003C
:10029000C0938A0024C084B5806884BDC7BD1FC0D8
:1002A00080918000806880938000D0938900C09303
:1002B000880015C08091B00080688093B000C09322
:1002C000B3000DC08091B00080628093B000C093F5
:1002D000B40005C0C038D1050CF0B5CFAFCFDF9169
:1002E000CF911F9108950895CF92DF92EF92FF92E0
:1002F0000F931F93CF93DF936C017A018B01C0E0C2
:10030000D0E0CE15DF0589F0D8016D918D01D601C1
:10031000ED91FC910190F081E02DC6010995892BAA
:1003200011F47E0102C02196ECCFC701DF91CF917D
:100330001F910F91FF90EF90DF90CF900895089557
:1003400080E090E00895FC01538D448D252F30E02E
:10035000842F90E0821B930B541710F0CF960895D2
:1003600001970895FC01918D828D981761F0828D1F
:10037000DF01A80FB11D5D968C91928D9F5F9F73D9
:10038000928F90E008958FEF9FEF0895FC01918D7B
:10039000828D981731F0828DE80FF11D858D90E0E8
:1003A00008958FEF9FEF0895FC01918D228D892F85
:1003B00090E0805C9F4F821B91098F73992708956D
:1003C00081E791E00E94D40121E0892B09F420E02B
:1003D000822F0895FC01848DDF01A80FB11DA35A5F
:1003E000BF4F2C91848D90E001968F739927848F55
:1003F000A689B7892C93A089B1898C9180648C934C
:10040000938D848D981306C00288F389E02D808136
:100410008F7D80830895EF92FF920F931F93CF9368
:10042000DF93EC0181E0888F9B8D8C8D981305C044
:10043000E889F989808185FD24C0F62E0B8D10E0B6
:100440000F5F1F4F0F731127E02E8C8DE8120CC029
:100450000FB607FCFACFE889F989808185FFF5CFCF
:10046000CE010E94EA01F1CF8B8DFE01E80FF11D54
:10047000E35AFF4FF0820B8FEA89FB89808180620B
:1004800007C0EE89FF896083E889F98980818064EB
:10049000808381E090E0DF91CF911F910F91FF90D9
:1004A000EF900895CF93DF93EC01888D8823C9F0F6
:1004B000EA89FB89808185FD05C0A889B9898C916D
:1004C00086FD0FC00FB607FCF5CF808185FFF2CF08
:1004D000A889B9898C9185FFEDCFCE010E94EA01F0
:1004E000E7CFDF91CF91089580E090E0892B29F04C
:1004F0000E94E00181110C94000008952F923F9218
:100500004F925F926F927F928F929F92AF92BF9223
:10051000CF92DF92EF92FF920F931F93CF93DF93CF
:10052000CDB7DEB728970FB6F894DEBF0FBECDBFAC
:100530001C012A013B0109831A832B833C83DC01C4
:100540005B96BC92AE925A9781E0AA94AB2809F0D0
:1005500080E0F10183AF408251826282738289819F
:100560009A81AB81BC8184839583A683B783C0863F
:10057000D186E286F38666A577A580A991A90E9417
:10058000F00D20E030E04AE754E40E94480D6D830E
:100590007E838F839887F1014486558666867786A9
:1005A0009B01AC0169817A818B819C810E94A70E9D
:1005B0004B015C01D10150966D937D938D939C937B
:1005C00053972D813E814F815885C701B6010E9406
:1005D000480D6B017C01F101648B758B868B978BC9
:1005E000808D918D019741F5A301920160E070E04B
:1005F000CB010E94D60CD1011C966D937D938D93F7
:100600009C931F97A501940160E070E0CB010E94CC
:10061000D60CF101608B718B828B938BA7019601B5
:1006200060E070E0CB010E94D60CD10154966D932E
:100630007D938D939C93579728960FB6F894DEBFC1
:100640000FBECDBFDF91CF911F910F91FF90EF9023
:10065000DF90CF90BF90AF909F908F907F906F90E2
:100660005F904F903F902F900895DC01ED91FD91A8
:100670008081ED91FD919081ED91FD916C91637080
:100680008E2309F064609F2309F06860E2E5F3E0DF
:10069000E60FF11D659565956D936D917D918D9139
:1006A0009D91099423C01AC012C016C010C01EC06C
:1006B00009C014C013C006C019C009C00DC007C0CE
:1006C0000DC014C062507040804090400BC061501B
:1006D00070408040904006C06E5F01C06F5F7F4FEA
:1006E0008F4F9F4F9E938E937E936E93089580912C
:1006F0001A0290911B020C9435038091180290917C
:1007000019020C943503009769F0FC010190002058
:10071000E9F73197AF01481B590BBC0181E791E024
:100720000C94740180E090E008958F929F92AF92B4
:10073000BF920F931F93CF93DF93CDB7DEB7A197EF
:100740000FB6F894DEBF0FBECDBF19A2423008F439
:100750004AE08E010F5D1F4F842E912CA12CB12CED
:10076000A50194010E94190FE62FB901CA01015099
:100770001109EA3014F4E05D01C0E95CD801EC93A2
:10078000232B242B252B61F7C8010E948303A196FC
:100790000FB6F894DEBF0FBECDBFDF91CF911F9192
:1007A0000F91BF90AF909F908F9008954F925F925E
:1007B0006F927F928F929F92AF92BF92CF92DF9271
:1007C000EF92FF926B017C01B42E9B01AC010E9461
:1007D000140F882319F08EE191E027C0260137011C
:1007E000E89477F82FEF3FEF4FE75FE7C301B201DF
:1007F0000E94140F81110DC02FEF3FEF4FE75FE70D
:10080000C301B2010E94430D18161CF482E291E06C
:100810000CC02FEF3FEF4FE75FE4C701B6010E9426
:10082000A20E181684F486E291E0FF90EF90DF901C
:10083000CF90BF90AF909F908F907F906F905F9080
:100840004F900C9483032FEF3FEF4FE75FECC7010E
:10085000B6010E94430D87FDE6CF20E030E0A901FC
:10086000C701B6010E94430D87FF11C0E0917101DD
:10087000F09172010190F081E02D6DE281E791E04D
:1008800009954C01F7FAF094F7F8F09402C0812C26
:10089000912CA12C60E070E080E09FE3AB1441F06C
:1008A00020E030E040E251E40E94480DA394F6CFEE
:1008B0009B01AC01C701B6010E94D70C2B013C0182
:1008C0000E94C10D6B017C010E94F00D9B01AC01E7
:1008D000C301B2010E94D60C2B013C014AE0C701C2
:1008E000B6010E9495037C01E80CF91CBB2069F05D
:1008F000E0917101F09172010190F081E02D6EE2C2
:1009000081E791E00995E80EF91EDB2CDD2021F14D
:1009100020E030E040E251E4C301B2010E94A70EA2
:100920002B013C010E94C10D4B01A12CB12C4AE0CE
:10093000C501B4010E949503E80EF91EC501B4017A
:100940000E94F00D9B01AC01C301B2010E94D60CC4
:100950002B013C01DA94DACFC701FF90EF90DF90D2
:10096000CF90BF90AF909F908F907F906F905F904F
:100970004F9008950E94410F1F920F920FB60F9251
:1009800011242F933F938F939F93AF93BF938091A5
:100990001C0290911D02A0911E02B0911F02309185
:1009A000700123E0230F2D3720F40196A11DB11D06
:1009B00005C026E8230F0296A11DB11D20937001EA
:1009C00080931C0290931D02A0931E02B0931F02FD
:1009D00080916C0190916D01A0916E01B0916F01B9
:1009E0000196A11DB11D80936C0190936D01A093A0
:1009F0006E01B0936F01BF91AF919F918F913F9125
:100A00002F910F900FBE0F901F9018951F920F926D
:100A10000FB60F9211242F933F934F935F936F93D1
:100A20007F938F939F93AF93BF93EF93FF93E09147
:100A30000A01F0910B010995FF91EF91BF91AF91E0
:100A40009F918F917F916F915F914F913F912F91E6
:100A50000F900FBE0F901F9018951F920F920FB618
:100A60000F9211242F933F934F935F936F937F9334
:100A70008F939F93AF93BF93EF93FF93E091080100
:100A8000F09109010995FF91EF91BF91AF919F916D
:100A90008F917F916F915F914F913F912F910F9027
:100AA0000FBE0F901F9018951F920F920FB60F92C6
:100AB00011242F933F934F935F936F937F938F9363
:100AC0009F93AF93BF93EF93FF9381E791E00E94D1
:100AD000EA01FF91EF91BF91AF919F918F917F912B
:100AE0006F915F914F913F912F910F900FBE0F909B
:100AF0001F9018951F920F920FB60F9211242F93EB
:100B00008F939F93EF93FF93E0918101F091820186
:100B10008081E0918701F091880182FD12C090816F
:100B200080918A018F5F8F7320918B01821751F022
:100B3000E0918A01F0E0EF58FE4F958F80938A0193
:100B400001C08081FF91EF919F918F912F910F9024
:100B50000FBE0F901F9018951F920F920FB60F9215
:100B600011248F939F93AF93BF93EF93FF93EEE086
:100B7000F2E080819181A281B3810196A11DB11D16
:100B800080839183A283B383FF91EF91BF91AF9153
:100B90009F918F910F900FBE0F901F901895AF925D
:100BA000BF92CF92DF92EF92FF920F931F93CF935A
:100BB000DF93109274011092730188EE93E0A0E02D
:100BC000B0E08093750190937601A0937701B09384
:100BD000780180E191E0909372018093710185EC3E
:100BE00090E090937E0180937D0184EC90E090935F
:100BF000800180937F0180EC90E09093820180934C
:100C0000810181EC90E0909384018093830182ECD8
:100C100090E0909386018093850186EC90E090931C
:100C200088018093870110928A0110928B011092A3
:100C30008C0110928D0110920E0210920F021092F0
:100C400010021092110210921202109213021092CE
:100C500014021092150284E392E090935B02809359
:100C60005A0288E392E0909359028093580280E3FD
:100C700092E090935D0280935C0210927602109253
:100C80006E0210926F02109270021092710280E058
:100C900090E0AFE7B3E48093720290937302A09365
:100CA0007402B093750284E690E0A0E0B0E0809317
:100CB0006A0290936B02A0936C02B0936D02109243
:100CC000550210925402AA24A394B12CC12CD12C09
:100CD000E12C90E4F92E9701860140E050E06FE7A7
:100CE00073E48CE392E00E947E022FB7F894809127
:100CF0001C0290911D02A0911E02B0911F022FBFF5
:100D000040916A0250916B0260916C0270916D0289
:100D1000841B950BA60BB70B80935E0290935F022A
:100D2000A0936002B093610262E082E00E94D8006A
:100D300062E083E00E94D800E0EBF0E0E491F0E0B4
:100D4000EE0FFF1FEC55FF4FA591B491B093250214
:100D5000A0932402E2E9F0E0849180932802E1EB81
:100D6000F0E0E491F0E0EE0FFF1FEC55FF4FC5916E
:100D7000D491D0932702C0932602E3E9F0E0E491F6
:100D8000E093290210922B0210922C0210922D0255
:100D900010922E02EBE3FFE13197F1F7EC91E8239B
:100DA00081E009F480E0288190912902922309F0E2
:100DB000826024E232E080932A0230931902209369
:100DC00018028DE793E090930901809308018091C8
:100DD00069008C7F816080936900E89A81E080934C
:100DE0002F0230931B0220931A0287E793E090931F
:100DF0000B0180930A0180916900837F8460809356
:100E00006900E99A82E080932F0283ED92EDA7E3D7
:100E1000B5E48093200290932102A0932202B09324
:100E20002302DF91CF911F910F91FF90EF90DF9000
:100E3000CF90BF90AF900895CF93DF93CDB7DEB73B
:100E40002E970FB6F894DEBF0FBECDBF789484B551
:100E5000826084BD84B5816084BD85B5826085BDB6
:100E600085B5816085BD80916E00816080936E0044
:100E70001092810080918100826080938100809136
:100E800081008160809381008091800081608093E7
:100E900080008091B10084608093B1008091B000A7
:100EA00081608093B00080917A00846080937A00A2
:100EB00080917A00826080937A0080917A008160CC
:100EC00080937A0080917A00806880937A001092F3
:100ED000C10080918100887F816080938100809132
:100EE000B000809316028091B10080931702809128
:100EF000B100887F82608093B10080917000816032
:100F0000809370008091B0008C7F8093B0008091BE
:100F1000B100877F8093B1003FB7F8942091B20071
:100F2000B89B16C02091B20080910E0290910F02E2
:100F3000A0911002B09111020196A11DB11D8093E4
:100F40000E0290930F02A0931002B0931102B89A70
:100F500080910E0290910F02A0911002B0911102A7
:100F6000BA2FA92F982F8827820F911DA11DB11D7F
:100F70008093120290931302A0931402B09315026F
:100F80003FBF8093420190934301A0934401B093EB
:100F90004501109238021092390210923A021092D2
:100FA0003B021092300210923102109232021092E3
:100FB00033021092340210923502109236021092CF
:100FC00037028091760200915A0210915B028111E2
:100FD00045C0D801CD90DD90ED90FC90C0926202AA
:100FE000D0926302E0926402F0926502E0915802AE
:100FF000F091590280819181A281B3818093660230
:1010000090936702A0936802B09369028090720285
:1010100090907302A0907402B0907502A5019401A3
:10102000C701B6010E94A20E181684F080906E02CD
:1010300090906F02A0907002B0907102A50194018F
:10104000C701B6010E94430D87FF08C0809262026B
:1010500090926302A0926402B092650281E0809354
:10106000760260916A0270916B0280916C0290919D
:101070006D020E94F00D9B01AC0160E070E080E821
:101080009FE30E94480D6B017C019B01AC016091C4
:101090004C0270914D0280914E0290914F020E943D
:1010A000A70E60934C0270934D0280934E02909372
:1010B0004F02A701960160915002709151028091F8
:1010C0005202909153020E94480D60935002709317
:1010D0005102809352029093530281E090E0A0E08D
:1010E000B0E080936A0290936B02A0936C02B0937D
:1010F0006D02C12CD12C2FE7E22E23ECF22EC092F0
:101100006E02D0926F02E0927002F0927102412C56
:10111000512C3FE7632E33E4732E409272025092BB
:1011200073026092740270927502F801808091805F
:10113000A280B380A3019201C501B4010E94A20E56
:1011400018163CF4D8014D925D926D927C921397E3
:101150000FC020E030E04FE753ECC501B4010E941E
:10116000430D87FF05C0F801C082D182E282F3827D
:101170008090620290906302A0906402B090650239
:10118000C0907202D0907302E0907402F0907502E9
:10119000A7019601C501B4010E94A20E181684F0A1
:1011A000C0906E02D0906F02E0907002F0907102D9
:1011B000A7019601C501B4010E94430D87FF08C035
:1011C000C0926202D0926302E0926402F0926502E1
:1011D000E0918101F091820182E08083E0917D01C4
:1011E000F0917E011082E0917F01F091800180E119
:1011F000808310928901E0918501F091860186E05B
:101200008083E0918301F0918401808180618083FB
:10121000E0918301F0918401808188608083E09176
:101220008301F0918401808180688083E091830153
:10123000F091840180818F7D80838AE291E00E9419
:1012400083038DE391E00E9483033324339481E789
:1012500091E00E94D40118161906FCF481E791E090
:101260000E94B201E09146018A3079F0AE2FB0E0E1
:10127000A75BBE4F8C93EF5FE03218F4E09346011A
:101280000CC0FFE1F093460108C0F0E0E75BFE4FC1
:1012900010821092460130926B0180916B0188237D
:1012A00089F110926A011092690189E491E00E942B
:1012B000B00C90936A018093690110926B01BC019C
:1012C000990F880B990B0E94F20D6B017C019B0119
:1012D000AC016091300270913102809132029091A4
:1012E00033020E94430D882359F0C0923002D092FD
:1012F0003102E0923202F09233023092480102C091
:10130000109248018091690190916A01803C9B4252
:1013100029F48091470183258093470180914701FB
:10132000A0905602B0905702882309F45AC093E364
:10133000C92EDC2C93E1E92E90E4F92E9701860169
:1013400040E050E06FE773E48CE392E00E947E029D
:1013500060916A0270916B0280916C0290916D02B3
:101360000E94F00D9B01AC0160E070E080E89FE31B
:101370000E94480D6B017C019B01AC0160914C0205
:1013800070914D0280914E0290914F020E94A70EE3
:1013900060934C0270934D0280934E0290934F02E3
:1013A000A701960160915002709151028091520202
:1013B000909153020E94480D609350027093510225
:1013C000809352029093530281E090E0A0E0B0E05D
:1013D00080936A0290936B02A0936C02B0936D02AB
:1013E0005CC08DECC82E8CECD82E84E0E82E81E415
:1013F000F82E03E313E323E130E440E050E06AE732
:1014000073E48CE392E00E947E0260916A02709124
:101410006B0280916C0290916D020E94F00D9B0115
:10142000AC0160E070E080E89FE30E94480D6B0132
:101430007C019B01AC0160914C0270914D02809146
:101440004E0290914F020E94A70E60934C0270933F
:101450004D0280934E0290934F02A7019601609136
:1014600050027091510280915202909153020E9459
:10147000480D6093500270935102809352029093F2
:10148000530221E030E040E050E020936A023093C4
:101490006B0240936C0250936D0280912F02823058
:1014A00030F4F89484E292E00E94350301C0F8948D
:1014B00080912B0290912C02A0912D02B0912E02CE
:1014C00078948093040190930501A0930601B09352
:1014D000070140910401509105016091060170914E
:1014E00007018091000190910101A0910201B0914A
:1014F0000301481759076A077B0781F080910401AF
:1015000090910501A0910601B0910701809300011F
:1015100090930101A0930201B0930301C0903002A7
:10152000D0903102E0903202F090330260910401D9
:101530007091050180910601909107010E94F20DC2
:101540009B01AC01C701B6010E94D60C20E030E03F
:10155000A9010E94A20E18168CF4609104017091EA
:10156000050180910601909107010E94F20D9B01F7
:10157000AC01C701B6010E94D60C11C060910401F4
:101580007091050180910601909107010E94F20D72
:101590009B01AC01C701B6010E94D60C905820E017
:1015A00030E040EA51E40E94A20E18160CF066C129
:1015B00060910401709105018091060190910701ED
:1015C0000E94F20D609338027093390280933A02C0
:1015D00090933B0280917602882309F457C18FB71C
:1015E000F89420911C0230911D0240911E025091EE
:1015F0001F0229873A874B875C878FBF80915E02E5
:1016000090915F02A0916002B091610249855A8574
:101610006B857C85481B590B6A0B7B0B80916A029A
:1016200090916B02A0916C02B0916D02481759071E
:101630006A077B0708F42AC12091580230915902A9
:10164000D9018D919D910D90BC91A02D89839A8394
:10165000AB83BC83E0915C02F0915D029C01AD0123
:1016600060817181828193810E94D60C4B015C0163
:1016700020916602309167024091680250916902A0
:1016800069817A818B819C810E94D60C6B017C01DF
:1016900020914C0230914D0240914E0250914F02E8
:1016A000C501B4010E94A70E20916202309163022D
:1016B00040916402509165020E94D70C2B013C01BD
:1016C0006093620270936302809364029093650258
:1016D0002090770221101AC02091480230914902CF
:1016E00040914A0250914B02C701B6010E94A70ED9
:1016F0009B01AC01C301B2010E94D60C609362024F
:10170000709363028093640290936502409062023A
:1017100050906302609064027090650210917202B2
:10172000B0917302BE87E0917402ED87009175025B
:10173000212F3B2F4E2F502FC301B2010E94A20E2A
:1017400018162CF4812F9E85AD85B02F16C02091E0
:101750006E0230916F0240917002509171022D83A0
:101760003E834F835887C301B2010E94430D87FF18
:101770000CC08D819E81AF81B88580936202909369
:101780006302A0936402B0936502222079F0209155
:1017900048023091490240914A0250914B02C501E2
:1017A000B4010E94A70E4B015C0103C0812C912C57
:1017B00054012091500230915102409152025091B7
:1017C0005302C701B6010E94A70E9B01AC016091B4
:1017D00062027091630280916402909165020E949E
:1017E000D60C9B01AC01C501B4010E94D70C6B0162
:1017F0007C01212F3E854D85502F0E94A20E181688
:10180000C4F010916E0290916F029E87A0917002B9
:10181000AD8700917102212F392F4A2F502FB60129
:10182000C7010E94430D87FD04C01C2DDE86ED8696
:101830000F2DE0915A02F0915B02812F9E85AD85BC
:10184000B02F80839183A283B38329813A814B8116
:101850005C81209366023093670240936802509344
:10186000690289859A85AB85BC8580935E029093D9
:101870005F02A0936002B093610208C0109234022C
:10188000109235021092360210923702609138029F
:101890007091390280913A0290913B0242E00E949D
:1018A000D60380E491E00E9483036091340270913A
:1018B0003502809136029091370242E00E94D603B1
:1018C0008DE391E00E948303C0903402D0903502F2
:1018D000E0903602F090370220E030E0A901C70125
:1018E000B6010E94430D87FF17C020E030E0A90138
:1018F000C701B6010E94A20E18161CF4C701B6015A
:1019000003C0C701B60190580E94BA0D89E00E9439
:10191000140160E070E01EC060E070E089E00E94A9
:101920001401C0903402D0903502E0903602F0905D
:10193000370220E030E0A901C701B6010E94A20EE3
:1019400018161CF4C701B60103C0C701B6019058B0
:101950000E94BA0D8AE00E9414010E94740277CCA2
:10196000FC0188279927E89421912032E9F3293056
:1019700010F02E30C8F32B3241F02D3239F4689438
:1019800004C00E94CE0C820F911D219120532A3059
:10199000C0F31EF4909581959F4F08957AE0979F2C
:1019A000902D879F802D910D112408955058BB27AD
:1019B000AA270E94EE0C0C94680E0E945A0E38F072
:1019C0000E94610E20F039F49F3F19F426F40C9424
:1019D000570E0EF4E095E7FB0C94510EE92F0E9490
:1019E000790E58F3BA17620773078407950720F03A
:1019F00079F4A6F50C949B0E0EF4E0950B2EBA2FFD
:101A0000A02D0B01B90190010C01CA01A001112404
:101A1000FF27591B99F0593F50F4503E68F11A16B0
:101A2000F040A22F232F342F4427585FF3CF469541
:101A300037952795A795F0405395C9F77EF41F1663
:101A4000BA0B620B730B840BBAF09150A1F0FF0F2D
:101A5000BB1F661F771F881FC2F70EC0BA0F621F19
:101A6000731F841F48F4879577956795B795F79509
:101A70009E3F08F0B0CF9395880F08F09927EE0F9E
:101A80009795879508950E942D0E08F481E008959A
:101A90000E945C0D0C94680E0E94610E58F00E942A
:101AA0005A0E40F029F45F3F29F00C94510E511169
:101AB0000C949C0E0C94570E0E94790E68F3992397
:101AC000B1F3552391F3951B550BBB27AA2762173A
:101AD0007307840738F09F5F5F4F220F331F441F47
:101AE000AA1FA9F335D00E2E3AF0E0E832D091507B
:101AF0005040E695001CCAF72BD0FE2F29D0660F68
:101B0000771F881FBB1F261737074807AB07B0E8AA
:101B100009F0BB0B802DBF01FF2793585F4F3AF0B0
:101B20009E3F510578F00C94510E0C949C0E5F3F33
:101B3000E4F3983ED4F3869577956795B795F79536
:101B40009F5FC9F7880F911D9695879597F908951E
:101B5000E1E0660F771F881FBB1F621773078407BA
:101B6000BA0720F0621B730B840BBA0BEE1F88F7C9
:101B7000E09508950E94C10D6894B1110C949C0EDB
:101B800008950E94810E88F09F5798F0B92F9927E9
:101B9000B751B0F0E1F0660F771F881F991F1AF058
:101BA000BA95C9F714C0B13091F00E949B0EB1E014
:101BB00008950C949B0E672F782F8827B85F39F013
:101BC000B93FCCF3869577956795B395D9F73EF4F1
:101BD00090958095709561957F4F8F4F9F4F089599
:101BE000E89409C097FB3EF49095809570956195B7
:101BF0007F4F8F4F9F4F9923A9F0F92F96E9BB276D
:101C00009395F695879577956795B795F111F8CFE8
:101C1000FAF4BB0F11F460FF1BC06F5F7F4F8F4F53
:101C20009F4F16C0882311F096E911C0772321F049
:101C30009EE8872F762F05C0662371F096E8862FE1
:101C400070E060E02AF09A95660F771F881FDAF738
:101C5000880F9695879597F90895990F0008550F65
:101C6000AA0BE0E8FEEF16161706E807F907C0F022
:101C700012161306E407F50798F0621B730B840B2A
:101C8000950B39F40A2661F0232B242B252B21F404
:101C900008950A2609F4A140A6958FEF811D811DA4
:101CA000089597F99F6780E870E060E008959FEFDE
:101CB00080EC089500240A941616170618060906E3
:101CC000089500240A9412161306140605060895B2
:101CD000092E0394000C11F4882352F0BB0F40F43A
:101CE000BF2B11F460FF04C06F5F7F4F8F4F9F4F7A
:101CF000089557FD9058440F551F59F05F3F71F0FC
:101D00004795880F97FB991F61F09F3F79F0879562
:101D10000895121613061406551FF2CF4695F1DFEB
:101D200008C0161617061806991FF1CF869571057B
:101D3000610508940895E894BB2766277727CB01AF
:101D400097F908950E942D0E08F48FEF08950E94D0
:101D5000BA0E0C94680E0E945A0E38F00E94610E62
:101D600020F0952311F00C94510E0C94570E112471
:101D70000C949C0E0E94790E70F3959FC1F3950F01
:101D800050E0551F629FF001729FBB27F00DB11DFF
:101D9000639FAA27F00DB11DAA1F649F6627B00D8F
:101DA000A11D661F829F2227B00DA11D621F739F78
:101DB000B00DA11D621F839FA00D611D221F749F86
:101DC0003327A00D611D231F849F600D211D822FCD
:101DD000762F6A2F11249F5750409AF0F1F08823F4
:101DE0004AF0EE0FFF1FBB1F661F771F881F915021
:101DF0005040A9F79E3F510580F00C94510E0C9471
:101E00009C0E5F3FE4F3983ED4F3869577956795F3
:101E1000B795F795E7959F5FC1F7FE2B880F911D4A
:101E20009695879597F908950E942D0E880B990B2A
:101E30000895A1E21A2EAA1BBB1BFD010DC0AA1F0B
:101E4000BB1FEE1FFF1FA217B307E407F50720F023
:101E5000A21BB30BE40BF50B661F771F881F991F9E
:101E60001A9469F760957095809590959B01AC01E7
:101E7000BD01CF010895EE0FFF1F0590F491E02DF5
:101E8000099481E090E0F8940C94460FF894FFCF09
:101E900019FCFFFFE703000073017301000000005D
:101EA0000B027401A3015202D401B201C6016E619A
:101EB0006E00696E66006F7666003C4172647569FB
:101EC0006E6F2069732072656164793E000D0A00AF
:021ED000090007
:00000001FF
